{
  "address": "0x5862CA10ab1b2fcaB51c81cAD88BC08A77b92882",
  "abi": [
    {
      "inputs": [
        {
          "internalType": "string",
          "name": "name",
          "type": "string"
        },
        {
          "internalType": "string",
          "name": "symbol",
          "type": "string"
        }
      ],
      "stateMutability": "nonpayable",
      "type": "constructor"
    },
    {
      "anonymous": false,
      "inputs": [
        {
          "indexed": true,
          "internalType": "address",
          "name": "owner",
          "type": "address"
        },
        {
          "indexed": true,
          "internalType": "address",
          "name": "approved",
          "type": "address"
        },
        {
          "indexed": true,
          "internalType": "uint256",
          "name": "tokenId",
          "type": "uint256"
        }
      ],
      "name": "Approval",
      "type": "event"
    },
    {
      "anonymous": false,
      "inputs": [
        {
          "indexed": true,
          "internalType": "address",
          "name": "owner",
          "type": "address"
        },
        {
          "indexed": true,
          "internalType": "address",
          "name": "operator",
          "type": "address"
        },
        {
          "indexed": false,
          "internalType": "bool",
          "name": "approved",
          "type": "bool"
        }
      ],
      "name": "ApprovalForAll",
      "type": "event"
    },
    {
      "anonymous": false,
      "inputs": [
        {
          "indexed": false,
          "internalType": "uint256",
          "name": "tokenId",
          "type": "uint256"
        }
      ],
      "name": "Locked",
      "type": "event"
    },
    {
      "anonymous": false,
      "inputs": [
        {
          "indexed": true,
          "internalType": "address",
          "name": "sender",
          "type": "address"
        },
        {
          "indexed": true,
          "internalType": "address",
          "name": "owner",
          "type": "address"
        },
        {
          "indexed": false,
          "internalType": "string",
          "name": "tokenURI",
          "type": "string"
        },
        {
          "indexed": false,
          "internalType": "uint256",
          "name": "tokenId",
          "type": "uint256"
        }
      ],
      "name": "Mint",
      "type": "event"
    },
    {
      "anonymous": false,
      "inputs": [
        {
          "indexed": true,
          "internalType": "address",
          "name": "previousOwner",
          "type": "address"
        },
        {
          "indexed": true,
          "internalType": "address",
          "name": "newOwner",
          "type": "address"
        }
      ],
      "name": "OwnershipTransferred",
      "type": "event"
    },
    {
      "anonymous": false,
      "inputs": [
        {
          "indexed": true,
          "internalType": "address",
          "name": "from",
          "type": "address"
        },
        {
          "indexed": true,
          "internalType": "address",
          "name": "to",
          "type": "address"
        },
        {
          "indexed": true,
          "internalType": "uint256",
          "name": "tokenId",
          "type": "uint256"
        }
      ],
      "name": "Transfer",
      "type": "event"
    },
    {
      "anonymous": false,
      "inputs": [
        {
          "indexed": false,
          "internalType": "uint256",
          "name": "tokenId",
          "type": "uint256"
        }
      ],
      "name": "Unlocked",
      "type": "event"
    },
    {
      "anonymous": false,
      "inputs": [
        {
          "indexed": false,
          "internalType": "uint256",
          "name": "period",
          "type": "uint256"
        }
      ],
      "name": "VerificationValidityPeriod",
      "type": "event"
    },
    {
      "anonymous": false,
      "inputs": [
        {
          "indexed": false,
          "internalType": "uint256",
          "name": "tokenId",
          "type": "uint256"
        },
        {
          "indexed": false,
          "internalType": "uint256",
          "name": "timestamp",
          "type": "uint256"
        }
      ],
      "name": "Verified",
      "type": "event"
    },
    {
      "inputs": [
        {
          "internalType": "address",
          "name": "to",
          "type": "address"
        },
        {
          "internalType": "uint256",
          "name": "tokenId",
          "type": "uint256"
        }
      ],
      "name": "approve",
      "outputs": [],
      "stateMutability": "nonpayable",
      "type": "function"
    },
    {
      "inputs": [
        {
          "internalType": "address",
          "name": "owner",
          "type": "address"
        }
      ],
      "name": "balanceOf",
      "outputs": [
        {
          "internalType": "uint256",
          "name": "",
          "type": "uint256"
        }
      ],
      "stateMutability": "view",
      "type": "function"
    },
    {
      "inputs": [
        {
          "internalType": "uint256",
          "name": "id",
          "type": "uint256"
        }
      ],
      "name": "burn",
      "outputs": [],
      "stateMutability": "nonpayable",
      "type": "function"
    },
    {
      "inputs": [
        {
          "internalType": "address",
          "name": "from",
          "type": "address"
        },
        {
          "internalType": "uint256",
          "name": "id",
          "type": "uint256"
        }
      ],
      "name": "burnFrom",
      "outputs": [],
      "stateMutability": "nonpayable",
      "type": "function"
    },
    {
      "inputs": [
        {
          "internalType": "uint256",
          "name": "id",
          "type": "uint256"
        }
      ],
      "name": "exists",
      "outputs": [
        {
          "internalType": "bool",
          "name": "",
          "type": "bool"
        }
      ],
      "stateMutability": "view",
      "type": "function"
    },
    {
      "inputs": [
        {
          "internalType": "uint256",
          "name": "tokenId",
          "type": "uint256"
        }
      ],
      "name": "getApproved",
      "outputs": [
        {
          "internalType": "address",
          "name": "",
          "type": "address"
        }
      ],
      "stateMutability": "view",
      "type": "function"
    },
    {
      "inputs": [
        {
          "internalType": "address",
          "name": "owner",
          "type": "address"
        },
        {
          "internalType": "address",
          "name": "operator",
          "type": "address"
        }
      ],
      "name": "isApprovedForAll",
      "outputs": [
        {
          "internalType": "bool",
          "name": "",
          "type": "bool"
        }
      ],
      "stateMutability": "view",
      "type": "function"
    },
    {
      "inputs": [
        {
          "internalType": "uint256",
          "name": "tokenId",
          "type": "uint256"
        }
      ],
      "name": "isVerified",
      "outputs": [
        {
          "internalType": "bool",
          "name": "",
          "type": "bool"
        }
      ],
      "stateMutability": "view",
      "type": "function"
    },
    {
      "inputs": [
        {
          "internalType": "uint256",
          "name": "tokenId",
          "type": "uint256"
        }
      ],
      "name": "lock",
      "outputs": [],
      "stateMutability": "nonpayable",
      "type": "function"
    },
    {
      "inputs": [
        {
          "internalType": "uint256",
          "name": "tokenId",
          "type": "uint256"
        }
      ],
      "name": "locked",
      "outputs": [
        {
          "internalType": "bool",
          "name": "",
          "type": "bool"
        }
      ],
      "stateMutability": "view",
      "type": "function"
    },
    {
      "inputs": [
        {
          "internalType": "address",
          "name": "to",
          "type": "address"
        },
        {
          "internalType": "string",
          "name": "tokenUri",
          "type": "string"
        }
      ],
      "name": "mint",
      "outputs": [
        {
          "internalType": "uint256",
          "name": "",
          "type": "uint256"
        }
      ],
      "stateMutability": "nonpayable",
      "type": "function"
    },
    {
      "inputs": [],
      "name": "name",
      "outputs": [
        {
          "internalType": "string",
          "name": "",
          "type": "string"
        }
      ],
      "stateMutability": "view",
      "type": "function"
    },
    {
      "inputs": [
        {
          "internalType": "address",
          "name": "owner",
          "type": "address"
        }
      ],
      "name": "ownedId",
      "outputs": [
        {
          "internalType": "uint256",
          "name": "",
          "type": "uint256"
        }
      ],
      "stateMutability": "view",
      "type": "function"
    },
    {
      "inputs": [],
      "name": "owner",
      "outputs": [
        {
          "internalType": "address",
          "name": "",
          "type": "address"
        }
      ],
      "stateMutability": "view",
      "type": "function"
    },
    {
      "inputs": [
        {
          "internalType": "uint256",
          "name": "tokenId",
          "type": "uint256"
        }
      ],
      "name": "ownerOf",
      "outputs": [
        {
          "internalType": "address",
          "name": "",
          "type": "address"
        }
      ],
      "stateMutability": "view",
      "type": "function"
    },
    {
      "inputs": [],
      "name": "renounceOwnership",
      "outputs": [],
      "stateMutability": "nonpayable",
      "type": "function"
    },
    {
      "inputs": [
        {
          "internalType": "address",
          "name": "from",
          "type": "address"
        },
        {
          "internalType": "address",
          "name": "to",
          "type": "address"
        },
        {
          "internalType": "uint256",
          "name": "tokenId",
          "type": "uint256"
        }
      ],
      "name": "safeTransferFrom",
      "outputs": [],
      "stateMutability": "nonpayable",
      "type": "function"
    },
    {
      "inputs": [
        {
          "internalType": "address",
          "name": "from",
          "type": "address"
        },
        {
          "internalType": "address",
          "name": "to",
          "type": "address"
        },
        {
          "internalType": "uint256",
          "name": "tokenId",
          "type": "uint256"
        },
        {
          "internalType": "bytes",
          "name": "data",
          "type": "bytes"
        }
      ],
      "name": "safeTransferFrom",
      "outputs": [],
      "stateMutability": "nonpayable",
      "type": "function"
    },
    {
      "inputs": [
        {
          "internalType": "address",
          "name": "operator",
          "type": "address"
        },
        {
          "internalType": "bool",
          "name": "approved",
          "type": "bool"
        }
      ],
      "name": "setApprovalForAll",
      "outputs": [],
      "stateMutability": "nonpayable",
      "type": "function"
    },
    {
      "inputs": [
        {
          "internalType": "uint256",
          "name": "period",
          "type": "uint256"
        }
      ],
      "name": "setVerificationValidityPeriod",
      "outputs": [],
      "stateMutability": "nonpayable",
      "type": "function"
    },
    {
      "inputs": [
        {
          "internalType": "bytes4",
          "name": "id",
          "type": "bytes4"
        }
      ],
      "name": "supportsInterface",
      "outputs": [
        {
          "internalType": "bool",
          "name": "",
          "type": "bool"
        }
      ],
      "stateMutability": "view",
      "type": "function"
    },
    {
      "inputs": [],
      "name": "symbol",
      "outputs": [
        {
          "internalType": "string",
          "name": "",
          "type": "string"
        }
      ],
      "stateMutability": "view",
      "type": "function"
    },
    {
      "inputs": [
        {
          "internalType": "uint256",
          "name": "tokenId",
          "type": "uint256"
        }
      ],
      "name": "tokenURI",
      "outputs": [
        {
          "internalType": "string",
          "name": "",
          "type": "string"
        }
      ],
      "stateMutability": "view",
      "type": "function"
    },
    {
      "inputs": [
        {
          "internalType": "address",
          "name": "from",
          "type": "address"
        },
        {
          "internalType": "address",
          "name": "to",
          "type": "address"
        },
        {
          "internalType": "uint256",
          "name": "tokenId",
          "type": "uint256"
        }
      ],
      "name": "transferFrom",
      "outputs": [],
      "stateMutability": "nonpayable",
      "type": "function"
    },
    {
      "inputs": [
        {
          "internalType": "address",
          "name": "newOwner",
          "type": "address"
        }
      ],
      "name": "transferOwnership",
      "outputs": [],
      "stateMutability": "nonpayable",
      "type": "function"
    },
    {
      "inputs": [
        {
          "internalType": "uint256",
          "name": "tokenId",
          "type": "uint256"
        }
      ],
      "name": "unlock",
      "outputs": [],
      "stateMutability": "nonpayable",
      "type": "function"
    },
    {
      "inputs": [
        {
          "internalType": "uint256",
          "name": "tokenId",
          "type": "uint256"
        }
      ],
      "name": "uri",
      "outputs": [
        {
          "internalType": "string",
          "name": "",
          "type": "string"
        }
      ],
      "stateMutability": "view",
      "type": "function"
    },
    {
      "inputs": [],
      "name": "verificationValidityPeriod",
      "outputs": [
        {
          "internalType": "uint256",
          "name": "",
          "type": "uint256"
        }
      ],
      "stateMutability": "view",
      "type": "function"
    },
    {
      "inputs": [
        {
          "internalType": "uint256",
          "name": "tokenId",
          "type": "uint256"
        }
      ],
      "name": "verify",
      "outputs": [],
      "stateMutability": "nonpayable",
      "type": "function"
    }
  ],
  "transactionHash": "0x5a2379593f4ccd809636576d0518924f413a4737c4fc32f93cfc289a343d3a95",
  "args": [
    "Glance",
    "GLANCE"
  ],
  "numDeployments": 1,
  "solcInputHash": "7f6ee88d3343050d53b01a5b2aed998e",
  "bytecode": "0x60806040523480156200001157600080fd5b50604051620029b9380380620029b983398101604081905262000034916200019b565b8181600062000044838262000294565b50600162000053828262000294565b505050620000706200006a6200008060201b60201c565b62000084565b50506301e1338060085562000360565b3390565b600780546001600160a01b038381166001600160a01b0319831681179093556040519116919082907f8be0079c531659141344cd1fd0a4f28419497f9722a3daafe3b4186f6b6457e090600090a35050565b634e487b7160e01b600052604160045260246000fd5b600082601f830112620000fe57600080fd5b81516001600160401b03808211156200011b576200011b620000d6565b604051601f8301601f19908116603f01168101908282118183101715620001465762000146620000d6565b816040528381526020925086838588010111156200016357600080fd5b600091505b8382101562000187578582018301518183018401529082019062000168565b600093810190920192909252949350505050565b60008060408385031215620001af57600080fd5b82516001600160401b0380821115620001c757600080fd5b620001d586838701620000ec565b93506020850151915080821115620001ec57600080fd5b50620001fb85828601620000ec565b9150509250929050565b600181811c908216806200021a57607f821691505b6020821081036200023b57634e487b7160e01b600052602260045260246000fd5b50919050565b601f8211156200028f57600081815260208120601f850160051c810160208610156200026a5750805b601f850160051c820191505b818110156200028b5782815560010162000276565b5050505b505050565b81516001600160401b03811115620002b057620002b0620000d6565b620002c881620002c1845462000205565b8462000241565b602080601f831160018114620003005760008415620002e75750858301515b600019600386901b1c1916600185901b1785556200028b565b600085815260208120601f198616915b82811015620003315788860151825594840194600190910190840162000310565b5085821015620003505787850151600019600388901b60f8161c191681555b5050505050600190811b01905550565b61264980620003706000396000f3fe608060405234801561001057600080fd5b50600436106101cf5760003560e01c806370a0823111610104578063a22cb465116100a2578063d0def52111610071578063d0def521146103cc578063dd467064146103df578063e985e9c5146103f2578063f2fde38b1461042e57600080fd5b8063a22cb46514610380578063b45a3c0e14610393578063b88d4fde146103a6578063c87b56dd146103b957600080fd5b80638753367f116100de5780638753367f146103415780638da5cb5b146103545780638f9d42c01461036557806395d89b411461037857600080fd5b806370a0823114610313578063715018a61461032657806379cc67901461032e57600080fd5b806342842e0e1161017157806350b022431161014b57806350b02243146102c35780636198e339146102d65780636352211e146102e9578063644ae0b9146102fc57600080fd5b806342842e0e1461028a57806342966c681461029d5780634f558e79146102b057600080fd5b8063095ea7b3116101ad578063095ea7b31461023c5780630e89341c1461025157806323b872dd1461026457806337b6d96b1461027757600080fd5b806301ffc9a7146101d457806306fdde03146101fc578063081812fc14610211575b600080fd5b6101e76101e23660046120d6565b610441565b60405190151581526020015b60405180910390f35b610204610452565b6040516101f39190612143565b61022461021f366004612156565b6104e4565b6040516001600160a01b0390911681526020016101f3565b61024f61024a36600461218b565b61050b565b005b61020461025f366004612156565b610641565b61024f6102723660046121b5565b6106b1565b6101e7610285366004612156565b610738565b61024f6102983660046121b5565b61075e565b61024f6102ab366004612156565b610779565b6101e76102be366004612156565b6107fe565b61024f6102d1366004612156565b61081d565b61024f6102e4366004612156565b610861565b6102246102f7366004612156565b61093a565b61030560085481565b6040519081526020016101f3565b6103056103213660046121f1565b61099f565b61024f610a39565b61024f61033c36600461218b565b610a4d565b61024f61034f366004612156565b610ae4565b6007546001600160a01b0316610224565b6103056103733660046121f1565b610b8c565b610204610c8d565b61024f61038e36600461220c565b610c9c565b6101e76103a1366004612156565b610ca7565b61024f6103b43660046122d4565b610d21565b6102046103c7366004612156565b610daf565b6103056103da366004612350565b610e1f565b61024f6103ed366004612156565b610f2c565b6101e76104003660046123b2565b6001600160a01b03918216600090815260056020908152604080832093909416825291909152205460ff1690565b61024f61043c3660046121f1565b611004565b600061044c82611091565b92915050565b606060008054610461906123e5565b80601f016020809104026020016040519081016040528092919081815260200182805461048d906123e5565b80156104da5780601f106104af576101008083540402835291602001916104da565b820191906000526020600020905b8154815290600101906020018083116104bd57829003601f168201915b5050505050905090565b60006104ef82611174565b506000908152600460205260409020546001600160a01b031690565b60006105168261093a565b9050806001600160a01b0316836001600160a01b0316036105a45760405162461bcd60e51b815260206004820152602160248201527f4552433732313a20617070726f76616c20746f2063757272656e74206f776e6560448201527f720000000000000000000000000000000000000000000000000000000000000060648201526084015b60405180910390fd5b336001600160a01b03821614806105c057506105c08133610400565b6106325760405162461bcd60e51b815260206004820152603d60248201527f4552433732313a20617070726f76652063616c6c6572206973206e6f7420746f60448201527f6b656e206f776e6572206f7220617070726f76656420666f7220616c6c000000606482015260840161059b565b61063c83836111d8565b505050565b6000818152600260205260409020546060906001600160a01b03166106a85760405162461bcd60e51b815260206004820152601760248201527f476c616e63653a20696e76616c696420746f6b656e4964000000000000000000604482015260640161059b565b61044c82610daf565b6106bb3382611253565b61072d5760405162461bcd60e51b815260206004820152602d60248201527f4552433732313a2063616c6c6572206973206e6f7420746f6b656e206f776e6560448201527f72206f7220617070726f76656400000000000000000000000000000000000000606482015260840161059b565b61063c8383836112d2565b6008546000828152600b6020526040812054909161075591612435565b42111592915050565b61063c83838360405180602001604052806000815250610d21565b6107828161093a565b6001600160a01b0316336001600160a01b0316146107e25760405162461bcd60e51b815260206004820152601160248201527f476c616e63653a206e6f74206f776e6572000000000000000000000000000000604482015260640161059b565b336000908152600c60205260408120556107fb81611515565b50565b6000818152600260205260408120546001600160a01b0316151561044c565b61082561151e565b60088190556040518181527fbbbdd37a454506ba2721c766fa2d128c62b231fddd7a9fe43d0daa9142e3f8f6906020015b60405180910390a150565b61086961151e565b6000818152600a602052604090205460ff1615156001146108f25760405162461bcd60e51b815260206004820152602360248201527f476c616e63653a20746f6b656e496420697320616c726561647920756e6c6f6360448201527f6b65640000000000000000000000000000000000000000000000000000000000606482015260840161059b565b6000818152600a602052604090819020805460ff19169055517ff27b6ce5b2f5e68ddb2fd95a8a909d4ecf1daaac270935fff052feacb24f1842906108569083815260200190565b6000818152600260205260408120546001600160a01b03168061044c5760405162461bcd60e51b815260206004820152601860248201527f4552433732313a20696e76616c696420746f6b656e2049440000000000000000604482015260640161059b565b60006001600160a01b038216610a1d5760405162461bcd60e51b815260206004820152602960248201527f4552433732313a2061646472657373207a65726f206973206e6f74206120766160448201527f6c6964206f776e65720000000000000000000000000000000000000000000000606482015260840161059b565b506001600160a01b031660009081526003602052604090205490565b610a4161151e565b610a4b6000611578565b565b610a5561151e565b610a5e8161093a565b6001600160a01b0316826001600160a01b031614610abe5760405162461bcd60e51b815260206004820152601160248201527f476c616e63653a206e6f74206f776e6572000000000000000000000000000000604482015260640161059b565b6001600160a01b0382166000908152600c6020526040812055610ae081611515565b5050565b610aec61151e565b6008546000828152600b60205260409020544291610b0991612435565b1115610b575760405162461bcd60e51b815260206004820152601b60248201527f476c616e63653a20746f6b656e49642069732076657269666965640000000000604482015260640161059b565b604080518281524260208201527f8eab708ce6e0e6274a85bdea557fdc6b4d4e75b23b4052154635a8929b6fb3169101610856565b60006001600160a01b038216610be45760405162461bcd60e51b815260206004820152601560248201527f476c616e63653a20696e76616c6964206f776e65720000000000000000000000604482015260640161059b565b6001600160a01b0382166000908152600c60205260408120549003610c715760405162461bcd60e51b815260206004820152602260248201527f476c616e63653a206f776e657220646f6573206e6f74206f776e206120746f6b60448201527f656e000000000000000000000000000000000000000000000000000000000000606482015260840161059b565b506001600160a01b03166000908152600c602052604090205490565b606060018054610461906123e5565b610ae03383836115d7565b6000818152600260205260408120546001600160a01b0316610d0b5760405162461bcd60e51b815260206004820152601760248201527f476c616e63653a20696e76616c696420746f6b656e4964000000000000000000604482015260640161059b565b506000908152600a602052604090205460ff1690565b610d2b3383611253565b610d9d5760405162461bcd60e51b815260206004820152602d60248201527f4552433732313a2063616c6c6572206973206e6f7420746f6b656e206f776e6560448201527f72206f7220617070726f76656400000000000000000000000000000000000000606482015260840161059b565b610da9848484846116a5565b50505050565b6000818152600260205260409020546060906001600160a01b0316610e165760405162461bcd60e51b815260206004820152601760248201527f476c616e63653a20696e76616c696420746f6b656e4964000000000000000000604482015260640161059b565b61044c8261172e565b6000610e2a8361099f565b15610e775760405162461bcd60e51b815260206004820152601c60248201527f476c616e63653a20746f6b656e20616c72656164792069737375656400000000604482015260640161059b565b610e85600980546001019055565b6000610e9060095490565b6000818152600a60209081526040808320805460ff191660011790556001600160a01b0388168352600c90915290208190559050610ece8482611836565b610ed881846119dc565b836001600160a01b0316336001600160a01b03167f415b0b5f279208d6e050585b8549ece14fe3a66a5ad3008951c4bcb1bb62b9b28584604051610f1d929190612448565b60405180910390a39392505050565b610f3461151e565b6000818152600a602052604090205460ff1615610fb95760405162461bcd60e51b815260206004820152602160248201527f476c616e63653a20746f6b656e496420697320616c7265616479206c6f636b6560448201527f6400000000000000000000000000000000000000000000000000000000000000606482015260840161059b565b6000818152600a602052604090819020805460ff19166001179055517f032bc66be43dbccb7487781d168eb7bda224628a3b2c3388bdf69b532a3a1611906108569083815260200190565b61100c61151e565b6001600160a01b0381166110885760405162461bcd60e51b815260206004820152602660248201527f4f776e61626c653a206e6577206f776e657220697320746865207a65726f206160448201527f6464726573730000000000000000000000000000000000000000000000000000606482015260840161059b565b6107fb81611578565b60007fffffffff0000000000000000000000000000000000000000000000000000000082167f80ac58cd00000000000000000000000000000000000000000000000000000000148061112457507fffffffff0000000000000000000000000000000000000000000000000000000082167f5b5e139f00000000000000000000000000000000000000000000000000000000145b8061044c57507f01ffc9a7000000000000000000000000000000000000000000000000000000007fffffffff0000000000000000000000000000000000000000000000000000000083161461044c565b6000818152600260205260409020546001600160a01b03166107fb5760405162461bcd60e51b815260206004820152601860248201527f4552433732313a20696e76616c696420746f6b656e2049440000000000000000604482015260640161059b565b6000818152600460205260409020805473ffffffffffffffffffffffffffffffffffffffff19166001600160a01b038416908117909155819061121a8261093a565b6001600160a01b03167f8c5be1e5ebec7d5bd14f71427d1e84f3dd0314c0f7b2291e5b200ac8c7c3b92560405160405180910390a45050565b60008061125f8361093a565b9050806001600160a01b0316846001600160a01b031614806112a657506001600160a01b0380821660009081526005602090815260408083209388168352929052205460ff165b806112ca5750836001600160a01b03166112bf846104e4565b6001600160a01b0316145b949350505050565b826001600160a01b03166112e58261093a565b6001600160a01b0316146113615760405162461bcd60e51b815260206004820152602560248201527f4552433732313a207472616e736665722066726f6d20696e636f72726563742060448201527f6f776e6572000000000000000000000000000000000000000000000000000000606482015260840161059b565b6001600160a01b0382166113dc5760405162461bcd60e51b8152602060048201526024808201527f4552433732313a207472616e7366657220746f20746865207a65726f2061646460448201527f7265737300000000000000000000000000000000000000000000000000000000606482015260840161059b565b6113e98383836001611a7e565b826001600160a01b03166113fc8261093a565b6001600160a01b0316146114785760405162461bcd60e51b815260206004820152602560248201527f4552433732313a207472616e736665722066726f6d20696e636f72726563742060448201527f6f776e6572000000000000000000000000000000000000000000000000000000606482015260840161059b565b6000818152600460209081526040808320805473ffffffffffffffffffffffffffffffffffffffff199081169091556001600160a01b0387811680865260038552838620805460001901905590871680865283862080546001019055868652600290945282852080549092168417909155905184937fddf252ad1be2c89b69c2b068fc378daa952ba7f163c4a11628f55a4df523b3ef91a4505050565b6107fb81611b4b565b6007546001600160a01b03163314610a4b5760405162461bcd60e51b815260206004820181905260248201527f4f776e61626c653a2063616c6c6572206973206e6f7420746865206f776e6572604482015260640161059b565b600780546001600160a01b0383811673ffffffffffffffffffffffffffffffffffffffff19831681179093556040519116919082907f8be0079c531659141344cd1fd0a4f28419497f9722a3daafe3b4186f6b6457e090600090a35050565b816001600160a01b0316836001600160a01b0316036116385760405162461bcd60e51b815260206004820152601960248201527f4552433732313a20617070726f766520746f2063616c6c657200000000000000604482015260640161059b565b6001600160a01b03838116600081815260056020908152604080832094871680845294825291829020805460ff191686151590811790915591519182527f17307eab39ab6107e8899845ad3d59bd9653f200f220920489ca2b5937696c31910160405180910390a3505050565b6116b08484846112d2565b6116bc84848484611b8b565b610da95760405162461bcd60e51b815260206004820152603260248201527f4552433732313a207472616e7366657220746f206e6f6e20455243373231526560448201527f63656976657220696d706c656d656e7465720000000000000000000000000000606482015260840161059b565b606061173982611174565b60008281526006602052604081208054611752906123e5565b80601f016020809104026020016040519081016040528092919081815260200182805461177e906123e5565b80156117cb5780601f106117a0576101008083540402835291602001916117cb565b820191906000526020600020905b8154815290600101906020018083116117ae57829003601f168201915b5050505050905060006117e960408051602081019091526000815290565b905080516000036117fb575092915050565b81511561182d57808260405160200161181592919061246a565b60405160208183030381529060405292505050919050565b6112ca84611d2c565b6001600160a01b03821661188c5760405162461bcd60e51b815260206004820181905260248201527f4552433732313a206d696e7420746f20746865207a65726f2061646472657373604482015260640161059b565b6000818152600260205260409020546001600160a01b0316156118f15760405162461bcd60e51b815260206004820152601c60248201527f4552433732313a20746f6b656e20616c7265616479206d696e74656400000000604482015260640161059b565b6118ff600083836001611a7e565b6000818152600260205260409020546001600160a01b0316156119645760405162461bcd60e51b815260206004820152601c60248201527f4552433732313a20746f6b656e20616c7265616479206d696e74656400000000604482015260640161059b565b6001600160a01b0382166000818152600360209081526040808320805460010190558483526002909152808220805473ffffffffffffffffffffffffffffffffffffffff19168417905551839291907fddf252ad1be2c89b69c2b068fc378daa952ba7f163c4a11628f55a4df523b3ef908290a45050565b6000828152600260205260409020546001600160a01b0316611a665760405162461bcd60e51b815260206004820152602e60248201527f45524337323155524953746f726167653a2055524920736574206f66206e6f6e60448201527f6578697374656e7420746f6b656e000000000000000000000000000000000000606482015260840161059b565b600082815260066020526040902061063c82826124e7565b6001600160a01b0384161580611a9b57506001600160a01b038316155b80611ab557506000828152600a602052604090205460ff16155b80611acd57506007546001600160a01b038581169116145b611b3f5760405162461bcd60e51b815260206004820152602360248201527f476c616e63653a20546f6b656e7320617265206e6f6e207472616e736665726160448201527f626c650000000000000000000000000000000000000000000000000000000000606482015260840161059b565b610da984848484611da0565b611b5481611e28565b60008181526006602052604090208054611b6d906123e5565b1590506107fb5760008181526006602052604081206107fb9161205a565b60006001600160a01b0384163b15611d21576040517f150b7a020000000000000000000000000000000000000000000000000000000081526001600160a01b0385169063150b7a0290611be89033908990889088906004016125a7565b6020604051808303816000875af1925050508015611c23575060408051601f3d908101601f19168201909252611c20918101906125e3565b60015b611cd6573d808015611c51576040519150601f19603f3d011682016040523d82523d6000602084013e611c56565b606091505b508051600003611cce5760405162461bcd60e51b815260206004820152603260248201527f4552433732313a207472616e7366657220746f206e6f6e20455243373231526560448201527f63656976657220696d706c656d656e7465720000000000000000000000000000606482015260840161059b565b805181602001fd5b7fffffffff00000000000000000000000000000000000000000000000000000000167f150b7a02000000000000000000000000000000000000000000000000000000001490506112ca565b506001949350505050565b6060611d3782611174565b6000611d4e60408051602081019091526000815290565b90506000815111611d6e5760405180602001604052806000815250611d99565b80611d7884611ed8565b604051602001611d8992919061246a565b6040516020818303038152906040525b9392505050565b6001811115610da9576001600160a01b03841615611de6576001600160a01b03841660009081526003602052604081208054839290611de0908490612600565b90915550505b6001600160a01b03831615610da9576001600160a01b03831660009081526003602052604081208054839290611e1d908490612435565b909155505050505050565b6000611e338261093a565b9050611e43816000846001611a7e565b611e4c8261093a565b6000838152600460209081526040808320805473ffffffffffffffffffffffffffffffffffffffff199081169091556001600160a01b0385168085526003845282852080546000190190558785526002909352818420805490911690555192935084927fddf252ad1be2c89b69c2b068fc378daa952ba7f163c4a11628f55a4df523b3ef908390a45050565b60606000611ee583611f78565b600101905060008167ffffffffffffffff811115611f0557611f05612248565b6040519080825280601f01601f191660200182016040528015611f2f576020820181803683370190505b5090508181016020015b600019017f3031323334353637383961626364656600000000000000000000000000000000600a86061a8153600a8504945084611f3957509392505050565b6000807a184f03e93ff9f4daa797ed6e38ed64bf6a1f0100000000000000008310611fc1577a184f03e93ff9f4daa797ed6e38ed64bf6a1f010000000000000000830492506040015b6d04ee2d6d415b85acef81000000008310611fed576d04ee2d6d415b85acef8100000000830492506020015b662386f26fc10000831061200b57662386f26fc10000830492506010015b6305f5e1008310612023576305f5e100830492506008015b612710831061203757612710830492506004015b60648310612049576064830492506002015b600a831061044c5760010192915050565b508054612066906123e5565b6000825580601f10612076575050565b601f0160209004906000526020600020908101906107fb91905b808211156120a45760008155600101612090565b5090565b7fffffffff00000000000000000000000000000000000000000000000000000000811681146107fb57600080fd5b6000602082840312156120e857600080fd5b8135611d99816120a8565b60005b8381101561210e5781810151838201526020016120f6565b50506000910152565b6000815180845261212f8160208601602086016120f3565b601f01601f19169290920160200192915050565b602081526000611d996020830184612117565b60006020828403121561216857600080fd5b5035919050565b80356001600160a01b038116811461218657600080fd5b919050565b6000806040838503121561219e57600080fd5b6121a78361216f565b946020939093013593505050565b6000806000606084860312156121ca57600080fd5b6121d38461216f565b92506121e16020850161216f565b9150604084013590509250925092565b60006020828403121561220357600080fd5b611d998261216f565b6000806040838503121561221f57600080fd5b6122288361216f565b91506020830135801515811461223d57600080fd5b809150509250929050565b634e487b7160e01b600052604160045260246000fd5b600067ffffffffffffffff8084111561227957612279612248565b604051601f8501601f19908116603f011681019082821181831017156122a1576122a1612248565b816040528093508581528686860111156122ba57600080fd5b858560208301376000602087830101525050509392505050565b600080600080608085870312156122ea57600080fd5b6122f38561216f565b93506123016020860161216f565b925060408501359150606085013567ffffffffffffffff81111561232457600080fd5b8501601f8101871361233557600080fd5b6123448782356020840161225e565b91505092959194509250565b6000806040838503121561236357600080fd5b61236c8361216f565b9150602083013567ffffffffffffffff81111561238857600080fd5b8301601f8101851361239957600080fd5b6123a88582356020840161225e565b9150509250929050565b600080604083850312156123c557600080fd5b6123ce8361216f565b91506123dc6020840161216f565b90509250929050565b600181811c908216806123f957607f821691505b60208210810361241957634e487b7160e01b600052602260045260246000fd5b50919050565b634e487b7160e01b600052601160045260246000fd5b8082018082111561044c5761044c61241f565b60408152600061245b6040830185612117565b90508260208301529392505050565b6000835161247c8184602088016120f3565b8351908301906124908183602088016120f3565b01949350505050565b601f82111561063c57600081815260208120601f850160051c810160208610156124c05750805b601f850160051c820191505b818110156124df578281556001016124cc565b505050505050565b815167ffffffffffffffff81111561250157612501612248565b6125158161250f84546123e5565b84612499565b602080601f83116001811461254a57600084156125325750858301515b600019600386901b1c1916600185901b1785556124df565b600085815260208120601f198616915b828110156125795788860151825594840194600190910190840161255a565b50858210156125975787850151600019600388901b60f8161c191681555b5050505050600190811b01905550565b60006001600160a01b038087168352808616602084015250836040830152608060608301526125d96080830184612117565b9695505050505050565b6000602082840312156125f557600080fd5b8151611d99816120a8565b8181038181111561044c5761044c61241f56fea264697066735822122078443710986826e7188a5a6a44ef93460e58941e81bce9d1abd7da2554d386b064736f6c63430008110033",
  "devdoc": {
    "details": "Token transfers may be locked and unlocked by the contract Owner",
    "kind": "dev",
    "methods": {
      "approve(address,uint256)": {
        "details": "See {IERC721-approve}."
      },
      "balanceOf(address)": {
        "details": "See {IERC721-balanceOf}."
      },
      "burn(uint256)": {
        "details": "Intended that Owner has the right to burn user tokens",
        "params": {
          "id": "Token id which will be burned"
        }
      },
      "burnFrom(address,uint256)": {
        "details": "Intended that Owner has the right to burn user tokens",
        "params": {
          "from": "Address whose token is to be burned",
          "id": "Token id which will be burned"
        }
      },
      "exists(uint256)": {
        "params": {
          "id": "the token ID to query."
        },
        "returns": {
          "_0": "`true` if the token already exists."
        }
      },
      "getApproved(uint256)": {
        "details": "See {IERC721-getApproved}."
      },
      "isApprovedForAll(address,address)": {
        "details": "See {IERC721-isApprovedForAll}."
      },
      "isVerified(uint256)": {
        "params": {
          "tokenId": "The tokenId to view the verification status of"
        }
      },
      "lock(uint256)": {
        "details": "By locking the tokenId, token owner is prevented from transferring their token",
        "params": {
          "tokenId": "The tokenId to lock"
        }
      },
      "locked(uint256)": {
        "params": {
          "tokenId": "The tokenId to view the locked status of"
        }
      },
      "mint(address,string)": {
        "details": "Intended that a user can mint only 1 account-bound token",
        "params": {
          "to": "Receiving address for the new token id",
          "tokenUri": "The token uri for the token id"
        }
      },
      "name()": {
        "details": "See {IERC721Metadata-name}."
      },
      "ownedId(address)": {
        "params": {
          "owner": "the owner address to query."
        },
        "returns": {
          "_0": "tokenId if owned."
        }
      },
      "owner()": {
        "details": "Returns the address of the current owner."
      },
      "ownerOf(uint256)": {
        "details": "See {IERC721-ownerOf}."
      },
      "renounceOwnership()": {
        "details": "Leaves the contract without owner. It will not be possible to call `onlyOwner` functions anymore. Can only be called by the current owner. NOTE: Renouncing ownership will leave the contract without an owner, thereby removing any functionality that is only available to the owner."
      },
      "safeTransferFrom(address,address,uint256)": {
        "details": "See {IERC721-safeTransferFrom}."
      },
      "safeTransferFrom(address,address,uint256,bytes)": {
        "details": "See {IERC721-safeTransferFrom}."
      },
      "setApprovalForAll(address,bool)": {
        "details": "See {IERC721-setApprovalForAll}."
      },
      "setVerificationValidityPeriod(uint256)": {
        "params": {
          "period": "The period of time before verification should be required again"
        }
      },
      "supportsInterface(bytes4)": {
        "params": {
          "id": "the interface identifier, as specified in ERC-165."
        },
        "returns": {
          "_0": "`true` if the contract implements `id`."
        }
      },
      "symbol()": {
        "details": "See {IERC721Metadata-symbol}."
      },
      "tokenURI(uint256)": {
        "params": {
          "tokenId": "The tokenId to get the uri of."
        },
        "returns": {
          "_0": "tokenURI The token's full URI string."
        }
      },
      "transferFrom(address,address,uint256)": {
        "details": "See {IERC721-transferFrom}."
      },
      "transferOwnership(address)": {
        "details": "Transfers ownership of the contract to a new account (`newOwner`). Can only be called by the current owner."
      },
      "unlock(uint256)": {
        "details": "By unlocking the tokenId, token owner is allowed to transfer their token",
        "params": {
          "tokenId": "The tokenId to unlock"
        }
      },
      "uri(uint256)": {
        "params": {
          "tokenId": "The tokenId to get the uri of."
        },
        "returns": {
          "_0": "URI The token's full URI string."
        }
      },
      "verify(uint256)": {
        "details": "Intended that the tokenId can be verified when the verificationValidityPeriod has expired",
        "params": {
          "tokenId": "The tokenId to verify"
        }
      }
    },
    "version": 1
  },
  "userdoc": {
    "events": {
      "Locked(uint256)": {
        "notice": "Emitted when the locking status is changed to locked."
      },
      "Unlocked(uint256)": {
        "notice": "Emitted when the locking status is changed to unlocked."
      }
    },
    "kind": "user",
    "methods": {
      "burn(uint256)": {
        "notice": "User function to burn token with given `id`"
      },
      "burnFrom(address,uint256)": {
        "notice": "Owner function to burn token with given `id`"
      },
      "exists(uint256)": {
        "notice": "Query if token exists with `id`."
      },
      "isVerified(uint256)": {
        "notice": "View if a token id is verified"
      },
      "lock(uint256)": {
        "notice": "Owner function to lock the contract"
      },
      "locked(uint256)": {
        "notice": "Public function for viewing the contract's locked status (true or false)"
      },
      "mint(address,string)": {
        "notice": "User function for minting a new account-bound token"
      },
      "ownedId(address)": {
        "notice": "Query the token id owned by a given owner address."
      },
      "setVerificationValidityPeriod(uint256)": {
        "notice": "Owner function to set the verification validity period"
      },
      "supportsInterface(bytes4)": {
        "notice": "Query if a contract implements interface `id`."
      },
      "tokenURI(uint256)": {
        "notice": "A distinct token Uniform Resource Identifier (URI) for a given token."
      },
      "unlock(uint256)": {
        "notice": "Owner function to unlock the contract"
      },
      "uri(uint256)": {
        "notice": "A distinct Uniform Resource Identifier (URI) for a given token."
      },
      "verify(uint256)": {
        "notice": "Owner function to verify a tokenId"
      }
    },
    "notice": "Account-bound Video NFT",
    "version": 1
  },
  "storageLayout": {
    "storage": [
      {
        "astId": 138,
        "contract": "src/Glance.sol:Glance",
        "label": "_name",
        "offset": 0,
        "slot": "0",
        "type": "t_string_storage"
      },
      {
        "astId": 140,
        "contract": "src/Glance.sol:Glance",
        "label": "_symbol",
        "offset": 0,
        "slot": "1",
        "type": "t_string_storage"
      },
      {
        "astId": 144,
        "contract": "src/Glance.sol:Glance",
        "label": "_owners",
        "offset": 0,
        "slot": "2",
        "type": "t_mapping(t_uint256,t_address)"
      },
      {
        "astId": 148,
        "contract": "src/Glance.sol:Glance",
        "label": "_balances",
        "offset": 0,
        "slot": "3",
        "type": "t_mapping(t_address,t_uint256)"
      },
      {
        "astId": 152,
        "contract": "src/Glance.sol:Glance",
        "label": "_tokenApprovals",
        "offset": 0,
        "slot": "4",
        "type": "t_mapping(t_uint256,t_address)"
      },
      {
        "astId": 158,
        "contract": "src/Glance.sol:Glance",
        "label": "_operatorApprovals",
        "offset": 0,
        "slot": "5",
        "type": "t_mapping(t_address,t_mapping(t_address,t_bool))"
      },
      {
        "astId": 1204,
        "contract": "src/Glance.sol:Glance",
        "label": "_tokenURIs",
        "offset": 0,
        "slot": "6",
        "type": "t_mapping(t_uint256,t_string_storage)"
      },
      {
        "astId": 7,
        "contract": "src/Glance.sol:Glance",
        "label": "_owner",
        "offset": 0,
        "slot": "7",
        "type": "t_address"
      },
      {
        "astId": 2877,
        "contract": "src/Glance.sol:Glance",
        "label": "verificationValidityPeriod",
        "offset": 0,
        "slot": "8",
        "type": "t_uint256"
      },
      {
        "astId": 2880,
        "contract": "src/Glance.sol:Glance",
        "label": "_tokenIds",
        "offset": 0,
        "slot": "9",
        "type": "t_struct(Counter)1701_storage"
      },
      {
        "astId": 2884,
        "contract": "src/Glance.sol:Glance",
        "label": "_locked",
        "offset": 0,
        "slot": "10",
        "type": "t_mapping(t_uint256,t_bool)"
      },
      {
        "astId": 2888,
        "contract": "src/Glance.sol:Glance",
        "label": "_verified",
        "offset": 0,
        "slot": "11",
        "type": "t_mapping(t_uint256,t_uint256)"
      },
      {
        "astId": 2892,
        "contract": "src/Glance.sol:Glance",
        "label": "_ownedId",
        "offset": 0,
        "slot": "12",
        "type": "t_mapping(t_address,t_uint256)"
      }
    ],
    "types": {
      "t_address": {
        "encoding": "inplace",
        "label": "address",
        "numberOfBytes": "20"
      },
      "t_bool": {
        "encoding": "inplace",
        "label": "bool",
        "numberOfBytes": "1"
      },
      "t_mapping(t_address,t_bool)": {
        "encoding": "mapping",
        "key": "t_address",
        "label": "mapping(address => bool)",
        "numberOfBytes": "32",
        "value": "t_bool"
      },
      "t_mapping(t_address,t_mapping(t_address,t_bool))": {
        "encoding": "mapping",
        "key": "t_address",
        "label": "mapping(address => mapping(address => bool))",
        "numberOfBytes": "32",
        "value": "t_mapping(t_address,t_bool)"
      },
      "t_mapping(t_address,t_uint256)": {
        "encoding": "mapping",
        "key": "t_address",
        "label": "mapping(address => uint256)",
        "numberOfBytes": "32",
        "value": "t_uint256"
      },
      "t_mapping(t_uint256,t_address)": {
        "encoding": "mapping",
        "key": "t_uint256",
        "label": "mapping(uint256 => address)",
        "numberOfBytes": "32",
        "value": "t_address"
      },
      "t_mapping(t_uint256,t_bool)": {
        "encoding": "mapping",
        "key": "t_uint256",
        "label": "mapping(uint256 => bool)",
        "numberOfBytes": "32",
        "value": "t_bool"
      },
      "t_mapping(t_uint256,t_string_storage)": {
        "encoding": "mapping",
        "key": "t_uint256",
        "label": "mapping(uint256 => string)",
        "numberOfBytes": "32",
        "value": "t_string_storage"
      },
      "t_mapping(t_uint256,t_uint256)": {
        "encoding": "mapping",
        "key": "t_uint256",
        "label": "mapping(uint256 => uint256)",
        "numberOfBytes": "32",
        "value": "t_uint256"
      },
      "t_string_storage": {
        "encoding": "bytes",
        "label": "string",
        "numberOfBytes": "32"
      },
      "t_struct(Counter)1701_storage": {
        "encoding": "inplace",
        "label": "struct Counters.Counter",
        "members": [
          {
            "astId": 1700,
            "contract": "src/Glance.sol:Glance",
            "label": "_value",
            "offset": 0,
            "slot": "0",
            "type": "t_uint256"
          }
        ],
        "numberOfBytes": "32"
      },
      "t_uint256": {
        "encoding": "inplace",
        "label": "uint256",
        "numberOfBytes": "32"
      }
    }
  }
}