{
  "address": "0x2C2e9E9fd055a2CB46B566711693A9F2eeA8219E",
  "abi": [
    {
      "inputs": [
        {
          "internalType": "string",
          "name": "uri",
          "type": "string"
        },
        {
          "internalType": "string",
          "name": "name_",
          "type": "string"
        },
        {
          "internalType": "string",
          "name": "symbol_",
          "type": "string"
        }
      ],
      "stateMutability": "nonpayable",
      "type": "constructor"
    },
    {
      "anonymous": false,
      "inputs": [
        {
          "indexed": true,
          "internalType": "address",
          "name": "account",
          "type": "address"
        },
        {
          "indexed": true,
          "internalType": "address",
          "name": "operator",
          "type": "address"
        },
        {
          "indexed": false,
          "internalType": "bool",
          "name": "approved",
          "type": "bool"
        }
      ],
      "name": "ApprovalForAll",
      "type": "event"
    },
    {
      "anonymous": false,
      "inputs": [],
      "name": "Locked",
      "type": "event"
    },
    {
      "anonymous": false,
      "inputs": [
        {
          "indexed": true,
          "internalType": "address",
          "name": "previousOwner",
          "type": "address"
        },
        {
          "indexed": true,
          "internalType": "address",
          "name": "newOwner",
          "type": "address"
        }
      ],
      "name": "OwnershipTransferred",
      "type": "event"
    },
    {
      "anonymous": false,
      "inputs": [
        {
          "indexed": true,
          "internalType": "address",
          "name": "operator",
          "type": "address"
        },
        {
          "indexed": true,
          "internalType": "address",
          "name": "from",
          "type": "address"
        },
        {
          "indexed": true,
          "internalType": "address",
          "name": "to",
          "type": "address"
        },
        {
          "indexed": false,
          "internalType": "uint256[]",
          "name": "ids",
          "type": "uint256[]"
        },
        {
          "indexed": false,
          "internalType": "uint256[]",
          "name": "values",
          "type": "uint256[]"
        }
      ],
      "name": "TransferBatch",
      "type": "event"
    },
    {
      "anonymous": false,
      "inputs": [
        {
          "indexed": true,
          "internalType": "address",
          "name": "operator",
          "type": "address"
        },
        {
          "indexed": true,
          "internalType": "address",
          "name": "from",
          "type": "address"
        },
        {
          "indexed": true,
          "internalType": "address",
          "name": "to",
          "type": "address"
        },
        {
          "indexed": false,
          "internalType": "uint256",
          "name": "id",
          "type": "uint256"
        },
        {
          "indexed": false,
          "internalType": "uint256",
          "name": "value",
          "type": "uint256"
        }
      ],
      "name": "TransferSingle",
      "type": "event"
    },
    {
      "anonymous": false,
      "inputs": [
        {
          "indexed": false,
          "internalType": "string",
          "name": "value",
          "type": "string"
        },
        {
          "indexed": true,
          "internalType": "uint256",
          "name": "id",
          "type": "uint256"
        }
      ],
      "name": "URI",
      "type": "event"
    },
    {
      "anonymous": false,
      "inputs": [],
      "name": "Unlocked",
      "type": "event"
    },
    {
      "inputs": [
        {
          "internalType": "address",
          "name": "account",
          "type": "address"
        },
        {
          "internalType": "uint256",
          "name": "id",
          "type": "uint256"
        }
      ],
      "name": "balanceOf",
      "outputs": [
        {
          "internalType": "uint256",
          "name": "",
          "type": "uint256"
        }
      ],
      "stateMutability": "view",
      "type": "function"
    },
    {
      "inputs": [
        {
          "internalType": "address[]",
          "name": "accounts",
          "type": "address[]"
        },
        {
          "internalType": "uint256[]",
          "name": "ids",
          "type": "uint256[]"
        }
      ],
      "name": "balanceOfBatch",
      "outputs": [
        {
          "internalType": "uint256[]",
          "name": "",
          "type": "uint256[]"
        }
      ],
      "stateMutability": "view",
      "type": "function"
    },
    {
      "inputs": [
        {
          "internalType": "address",
          "name": "account",
          "type": "address"
        },
        {
          "internalType": "uint256",
          "name": "id",
          "type": "uint256"
        },
        {
          "internalType": "uint256",
          "name": "value",
          "type": "uint256"
        }
      ],
      "name": "burn",
      "outputs": [],
      "stateMutability": "nonpayable",
      "type": "function"
    },
    {
      "inputs": [
        {
          "internalType": "address",
          "name": "account",
          "type": "address"
        },
        {
          "internalType": "uint256[]",
          "name": "ids",
          "type": "uint256[]"
        },
        {
          "internalType": "uint256[]",
          "name": "values",
          "type": "uint256[]"
        }
      ],
      "name": "burnBatch",
      "outputs": [],
      "stateMutability": "nonpayable",
      "type": "function"
    },
    {
      "inputs": [
        {
          "internalType": "uint256",
          "name": "id",
          "type": "uint256"
        }
      ],
      "name": "exists",
      "outputs": [
        {
          "internalType": "bool",
          "name": "",
          "type": "bool"
        }
      ],
      "stateMutability": "view",
      "type": "function"
    },
    {
      "inputs": [
        {
          "internalType": "address",
          "name": "account",
          "type": "address"
        },
        {
          "internalType": "address",
          "name": "operator",
          "type": "address"
        }
      ],
      "name": "isApprovedForAll",
      "outputs": [
        {
          "internalType": "bool",
          "name": "",
          "type": "bool"
        }
      ],
      "stateMutability": "view",
      "type": "function"
    },
    {
      "inputs": [],
      "name": "isLocked",
      "outputs": [
        {
          "internalType": "bool",
          "name": "",
          "type": "bool"
        }
      ],
      "stateMutability": "view",
      "type": "function"
    },
    {
      "inputs": [],
      "name": "lock",
      "outputs": [],
      "stateMutability": "nonpayable",
      "type": "function"
    },
    {
      "inputs": [
        {
          "internalType": "address",
          "name": "to",
          "type": "address"
        },
        {
          "internalType": "uint256",
          "name": "id",
          "type": "uint256"
        },
        {
          "internalType": "uint256",
          "name": "amount",
          "type": "uint256"
        },
        {
          "internalType": "bytes",
          "name": "data",
          "type": "bytes"
        }
      ],
      "name": "mint",
      "outputs": [],
      "stateMutability": "nonpayable",
      "type": "function"
    },
    {
      "inputs": [
        {
          "internalType": "address",
          "name": "to",
          "type": "address"
        },
        {
          "internalType": "uint256[]",
          "name": "ids",
          "type": "uint256[]"
        },
        {
          "internalType": "uint256[]",
          "name": "amounts",
          "type": "uint256[]"
        },
        {
          "internalType": "bytes",
          "name": "data",
          "type": "bytes"
        }
      ],
      "name": "mintBatch",
      "outputs": [],
      "stateMutability": "nonpayable",
      "type": "function"
    },
    {
      "inputs": [],
      "name": "name",
      "outputs": [
        {
          "internalType": "string",
          "name": "",
          "type": "string"
        }
      ],
      "stateMutability": "view",
      "type": "function"
    },
    {
      "inputs": [],
      "name": "owner",
      "outputs": [
        {
          "internalType": "address",
          "name": "",
          "type": "address"
        }
      ],
      "stateMutability": "view",
      "type": "function"
    },
    {
      "inputs": [],
      "name": "renounceOwnership",
      "outputs": [],
      "stateMutability": "nonpayable",
      "type": "function"
    },
    {
      "inputs": [
        {
          "internalType": "address",
          "name": "from",
          "type": "address"
        },
        {
          "internalType": "address",
          "name": "to",
          "type": "address"
        },
        {
          "internalType": "uint256[]",
          "name": "ids",
          "type": "uint256[]"
        },
        {
          "internalType": "uint256[]",
          "name": "amounts",
          "type": "uint256[]"
        },
        {
          "internalType": "bytes",
          "name": "data",
          "type": "bytes"
        }
      ],
      "name": "safeBatchTransferFrom",
      "outputs": [],
      "stateMutability": "nonpayable",
      "type": "function"
    },
    {
      "inputs": [
        {
          "internalType": "address",
          "name": "from",
          "type": "address"
        },
        {
          "internalType": "address",
          "name": "to",
          "type": "address"
        },
        {
          "internalType": "uint256",
          "name": "id",
          "type": "uint256"
        },
        {
          "internalType": "uint256",
          "name": "amount",
          "type": "uint256"
        },
        {
          "internalType": "bytes",
          "name": "data",
          "type": "bytes"
        }
      ],
      "name": "safeTransferFrom",
      "outputs": [],
      "stateMutability": "nonpayable",
      "type": "function"
    },
    {
      "inputs": [
        {
          "internalType": "address",
          "name": "operator",
          "type": "address"
        },
        {
          "internalType": "bool",
          "name": "approved",
          "type": "bool"
        }
      ],
      "name": "setApprovalForAll",
      "outputs": [],
      "stateMutability": "nonpayable",
      "type": "function"
    },
    {
      "inputs": [
        {
          "internalType": "string",
          "name": "newuri",
          "type": "string"
        }
      ],
      "name": "setURI",
      "outputs": [],
      "stateMutability": "nonpayable",
      "type": "function"
    },
    {
      "inputs": [
        {
          "internalType": "bytes4",
          "name": "interfaceId",
          "type": "bytes4"
        }
      ],
      "name": "supportsInterface",
      "outputs": [
        {
          "internalType": "bool",
          "name": "",
          "type": "bool"
        }
      ],
      "stateMutability": "view",
      "type": "function"
    },
    {
      "inputs": [],
      "name": "symbol",
      "outputs": [
        {
          "internalType": "string",
          "name": "",
          "type": "string"
        }
      ],
      "stateMutability": "view",
      "type": "function"
    },
    {
      "inputs": [
        {
          "internalType": "uint256",
          "name": "id",
          "type": "uint256"
        }
      ],
      "name": "totalSupply",
      "outputs": [
        {
          "internalType": "uint256",
          "name": "",
          "type": "uint256"
        }
      ],
      "stateMutability": "view",
      "type": "function"
    },
    {
      "inputs": [
        {
          "internalType": "address",
          "name": "newOwner",
          "type": "address"
        }
      ],
      "name": "transferOwnership",
      "outputs": [],
      "stateMutability": "nonpayable",
      "type": "function"
    },
    {
      "inputs": [],
      "name": "unlock",
      "outputs": [],
      "stateMutability": "nonpayable",
      "type": "function"
    },
    {
      "inputs": [
        {
          "internalType": "uint256",
          "name": "",
          "type": "uint256"
        }
      ],
      "name": "uri",
      "outputs": [
        {
          "internalType": "string",
          "name": "",
          "type": "string"
        }
      ],
      "stateMutability": "view",
      "type": "function"
    }
  ],
  "transactionHash": "0xbbedc6cc5d2d16eff9bab24af23174b11df5fe5aa51d791a1fe0320f1eaebfff",
  "args": [
    "https://rplanet-nft.s3.amazonaws.com/mark-metadata/1",
    "The First",
    "TheFirst"
  ],
  "numDeployments": 1,
  "solcInputHash": "5ada14bc8bc724f58f36a990a83cbbb0",
  "bytecode": "0x60806040523480156200001157600080fd5b5060405162002e3a38038062002e3a8339810160408190526200003491620001aa565b82620000408162000081565b506200004c3362000093565b60066200005a8382620002ca565b506007620000698282620002ca565b50506005805460ff1916600117905550620003969050565b60026200008f8282620002ca565b5050565b600380546001600160a01b038381166001600160a01b0319831681179093556040519116919082907f8be0079c531659141344cd1fd0a4f28419497f9722a3daafe3b4186f6b6457e090600090a35050565b634e487b7160e01b600052604160045260246000fd5b600082601f8301126200010d57600080fd5b81516001600160401b03808211156200012a576200012a620000e5565b604051601f8301601f19908116603f01168101908282118183101715620001555762000155620000e5565b816040528381526020925086838588010111156200017257600080fd5b600091505b8382101562000196578582018301518183018401529082019062000177565b600093810190920192909252949350505050565b600080600060608486031215620001c057600080fd5b83516001600160401b0380821115620001d857600080fd5b620001e687838801620000fb565b94506020860151915080821115620001fd57600080fd5b6200020b87838801620000fb565b935060408601519150808211156200022257600080fd5b506200023186828701620000fb565b9150509250925092565b600181811c908216806200025057607f821691505b6020821081036200027157634e487b7160e01b600052602260045260246000fd5b50919050565b601f821115620002c557600081815260208120601f850160051c81016020861015620002a05750805b601f850160051c820191505b81811015620002c157828155600101620002ac565b5050505b505050565b81516001600160401b03811115620002e657620002e6620000e5565b620002fe81620002f784546200023b565b8462000277565b602080601f8311600181146200033657600084156200031d5750858301515b600019600386901b1c1916600185901b178555620002c1565b600085815260208120601f198616915b82811015620003675788860151825594840194600190910190840162000346565b5085821015620003865787850151600019600388901b60f8161c191681555b5050505050600190811b01905550565b612a9480620003a66000396000f3fe608060405234801561001057600080fd5b506004361061018c5760003560e01c8063731133e9116100e3578063bd85b0391161008c578063f2fde38b11610066578063f2fde38b14610365578063f5298aca14610378578063f83d08ba1461038b57600080fd5b8063bd85b039146102f6578063e985e9c514610316578063f242432a1461035257600080fd5b8063a22cb465116100bd578063a22cb465146102d0578063a4e2d634146102e3578063a69df4b5146102ee57600080fd5b8063731133e91461029a5780638da5cb5b146102ad57806395d89b41146102c857600080fd5b80631f7fdffa116101455780634f558e791161011f5780634f558e791461025d5780636b20c4541461027f578063715018a61461029257600080fd5b80631f7fdffa146102175780632eb2c2d61461022a5780634e1273f41461023d57600080fd5b806302fe53051161017657806302fe5305146101da57806306fdde03146101ef5780630e89341c1461020457600080fd5b8062fdd58e1461019157806301ffc9a7146101b7575b600080fd5b6101a461019f366004612039565b610393565b6040519081526020015b60405180910390f35b6101ca6101c5366004612091565b61043f565b60405190151581526020016101ae565b6101ed6101e8366004612156565b610522565b005b6101f7610536565b6040516101ae91906121ed565b6101f7610212366004612200565b6105c4565b6101ed6102253660046122ce565b610658565b6101ed610238366004612367565b610672565b61025061024b366004612411565b610714565b6040516101ae9190612517565b6101ca61026b366004612200565b600090815260046020526040902054151590565b6101ed61028d36600461252a565b610852565b6101ed6108f0565b6101ed6102a836600461259e565b610904565b6003546040516001600160a01b0390911681526020016101ae565b6101f7610918565b6101ed6102de3660046125f3565b610925565b60055460ff166101ca565b6101ed610934565b6101a4610304366004612200565b60009081526004602052604090205490565b6101ca61032436600461262f565b6001600160a01b03918216600090815260016020908152604080832093909416825291909152205460ff1690565b6101ed610360366004612662565b6109ee565b6101ed6103733660046126c7565b610a89565b6101ed6103863660046126e2565b610b16565b6101ed610baf565b60006001600160a01b0383166104165760405162461bcd60e51b815260206004820152602a60248201527f455243313135353a2061646472657373207a65726f206973206e6f742061207660448201527f616c6964206f776e65720000000000000000000000000000000000000000000060648201526084015b60405180910390fd5b506000818152602081815260408083206001600160a01b03861684529091529020545b92915050565b60007fffffffff0000000000000000000000000000000000000000000000000000000082167fd9b67a260000000000000000000000000000000000000000000000000000000014806104d257507fffffffff0000000000000000000000000000000000000000000000000000000082167f0e89341c00000000000000000000000000000000000000000000000000000000145b8061043957507f01ffc9a7000000000000000000000000000000000000000000000000000000007fffffffff00000000000000000000000000000000000000000000000000000000831614610439565b61052a610c68565b61053381610cc2565b50565b6006805461054390612715565b80601f016020809104026020016040519081016040528092919081815260200182805461056f90612715565b80156105bc5780601f10610591576101008083540402835291602001916105bc565b820191906000526020600020905b81548152906001019060200180831161059f57829003601f168201915b505050505081565b6060600280546105d390612715565b80601f01602080910402602001604051908101604052809291908181526020018280546105ff90612715565b801561064c5780601f106106215761010080835404028352916020019161064c565b820191906000526020600020905b81548152906001019060200180831161062f57829003601f168201915b50505050509050919050565b610660610c68565b61066c84848484610cce565b50505050565b6001600160a01b03851633148061068e575061068e8533610324565b6107005760405162461bcd60e51b815260206004820152602f60248201527f455243313135353a2063616c6c6572206973206e6f7420746f6b656e206f776e60448201527f6572206e6f7220617070726f7665640000000000000000000000000000000000606482015260840161040d565b61070d8585858585610ebf565b5050505050565b6060815183511461078d5760405162461bcd60e51b815260206004820152602960248201527f455243313135353a206163636f756e747320616e6420696473206c656e67746860448201527f206d69736d617463680000000000000000000000000000000000000000000000606482015260840161040d565b6000835167ffffffffffffffff8111156107a9576107a96120b5565b6040519080825280602002602001820160405280156107d2578160200160208202803683370190505b50905060005b845181101561084a5761081d8582815181106107f6576107f661274f565b60200260200101518583815181106108105761081061274f565b6020026020010151610393565b82828151811061082f5761082f61274f565b60209081029190910101526108438161277b565b90506107d8565b509392505050565b6001600160a01b03831633148061086e575061086e8333610324565b6108e05760405162461bcd60e51b815260206004820152602f60248201527f455243313135353a2063616c6c6572206973206e6f7420746f6b656e206f776e60448201527f6572206e6f7220617070726f7665640000000000000000000000000000000000606482015260840161040d565b6108eb838383611156565b505050565b6108f8610c68565b61090260006113de565b565b61090c610c68565b61066c84848484611448565b6007805461054390612715565b610930338383611587565b5050565b61093c610c68565b60055460ff1615156001146109b95760405162461bcd60e51b815260206004820152602360248201527f46697273743a20436f6e747261637420697320616c726561647920756e6c6f6360448201527f6b65640000000000000000000000000000000000000000000000000000000000606482015260840161040d565b6005805460ff191690556040517f19aad37188a1d3921e29eb3c66acf43d81975e107cb650d58cca878627955fd690600090a1565b6001600160a01b038516331480610a0a5750610a0a8533610324565b610a7c5760405162461bcd60e51b815260206004820152602f60248201527f455243313135353a2063616c6c6572206973206e6f7420746f6b656e206f776e60448201527f6572206e6f7220617070726f7665640000000000000000000000000000000000606482015260840161040d565b61070d858585858561167b565b610a91610c68565b6001600160a01b038116610b0d5760405162461bcd60e51b815260206004820152602660248201527f4f776e61626c653a206e6577206f776e657220697320746865207a65726f206160448201527f6464726573730000000000000000000000000000000000000000000000000000606482015260840161040d565b610533816113de565b6001600160a01b038316331480610b325750610b328333610324565b610ba45760405162461bcd60e51b815260206004820152602f60248201527f455243313135353a2063616c6c6572206973206e6f7420746f6b656e206f776e60448201527f6572206e6f7220617070726f7665640000000000000000000000000000000000606482015260840161040d565b6108eb83838361185f565b610bb7610c68565b60055460ff1615610c305760405162461bcd60e51b815260206004820152602160248201527f46697273743a20436f6e747261637420697320616c7265616479206c6f636b6560448201527f6400000000000000000000000000000000000000000000000000000000000000606482015260840161040d565b6005805460ff191660011790556040517f0f2e5b6c72c6a4491efd919a9f9a409f324ef0708c11ee57d410c2cb06c0992b90600090a1565b6003546001600160a01b031633146109025760405162461bcd60e51b815260206004820181905260248201527f4f776e61626c653a2063616c6c6572206973206e6f7420746865206f776e6572604482015260640161040d565b600261093082826127db565b6001600160a01b038416610d4a5760405162461bcd60e51b815260206004820152602160248201527f455243313135353a206d696e7420746f20746865207a65726f2061646472657360448201527f7300000000000000000000000000000000000000000000000000000000000000606482015260840161040d565b8151835114610dac5760405162461bcd60e51b815260206004820152602860248201527f455243313135353a2069647320616e6420616d6f756e7473206c656e677468206044820152670dad2e6dac2e8c6d60c31b606482015260840161040d565b33610dbc81600087878787611a22565b60005b8451811015610e5757838181518110610dda57610dda61274f565b6020026020010151600080878481518110610df757610df761274f565b602002602001015181526020019081526020016000206000886001600160a01b03166001600160a01b031681526020019081526020016000206000828254610e3f919061289b565b90915550819050610e4f8161277b565b915050610dbf565b50846001600160a01b031660006001600160a01b0316826001600160a01b03167f4a39dc06d4c0dbc64b70af90fd698a233a518aa5d07e595d983b8c0526c8f7fb8787604051610ea89291906128ae565b60405180910390a461070d81600087878787611ae5565b8151835114610f215760405162461bcd60e51b815260206004820152602860248201527f455243313135353a2069647320616e6420616d6f756e7473206c656e677468206044820152670dad2e6dac2e8c6d60c31b606482015260840161040d565b6001600160a01b038416610f9d5760405162461bcd60e51b815260206004820152602560248201527f455243313135353a207472616e7366657220746f20746865207a65726f20616460448201527f6472657373000000000000000000000000000000000000000000000000000000606482015260840161040d565b33610fac818787878787611a22565b60005b84518110156110e8576000858281518110610fcc57610fcc61274f565b602002602001015190506000858381518110610fea57610fea61274f565b602090810291909101810151600084815280835260408082206001600160a01b038e1683529093529190912054909150818110156110905760405162461bcd60e51b815260206004820152602a60248201527f455243313135353a20696e73756666696369656e742062616c616e636520666f60448201527f72207472616e7366657200000000000000000000000000000000000000000000606482015260840161040d565b6000838152602081815260408083206001600160a01b038e8116855292528083208585039055908b168252812080548492906110cd90849061289b565b92505081905550505050806110e19061277b565b9050610faf565b50846001600160a01b0316866001600160a01b0316826001600160a01b03167f4a39dc06d4c0dbc64b70af90fd698a233a518aa5d07e595d983b8c0526c8f7fb87876040516111389291906128ae565b60405180910390a461114e818787878787611ae5565b505050505050565b6001600160a01b0383166111d25760405162461bcd60e51b815260206004820152602360248201527f455243313135353a206275726e2066726f6d20746865207a65726f206164647260448201527f6573730000000000000000000000000000000000000000000000000000000000606482015260840161040d565b80518251146112345760405162461bcd60e51b815260206004820152602860248201527f455243313135353a2069647320616e6420616d6f756e7473206c656e677468206044820152670dad2e6dac2e8c6d60c31b606482015260840161040d565b600033905061125781856000868660405180602001604052806000815250611a22565b60005b83518110156113715760008482815181106112775761127761274f565b6020026020010151905060008483815181106112955761129561274f565b602090810291909101810151600084815280835260408082206001600160a01b038c16835290935291909120549091508181101561133a5760405162461bcd60e51b8152602060048201526024808201527f455243313135353a206275726e20616d6f756e7420657863656564732062616c60448201527f616e636500000000000000000000000000000000000000000000000000000000606482015260840161040d565b6000928352602083815260408085206001600160a01b038b16865290915290922091039055806113698161277b565b91505061125a565b5060006001600160a01b0316846001600160a01b0316826001600160a01b03167f4a39dc06d4c0dbc64b70af90fd698a233a518aa5d07e595d983b8c0526c8f7fb86866040516113c29291906128ae565b60405180910390a460408051602081019091526000905261066c565b600380546001600160a01b038381167fffffffffffffffffffffffff0000000000000000000000000000000000000000831681179093556040519116919082907f8be0079c531659141344cd1fd0a4f28419497f9722a3daafe3b4186f6b6457e090600090a35050565b6001600160a01b0384166114c45760405162461bcd60e51b815260206004820152602160248201527f455243313135353a206d696e7420746f20746865207a65726f2061646472657360448201527f7300000000000000000000000000000000000000000000000000000000000000606482015260840161040d565b3360006114d085611ce9565b905060006114dd85611ce9565b90506114ee83600089858589611a22565b6000868152602081815260408083206001600160a01b038b1684529091528120805487929061151e90849061289b565b909155505060408051878152602081018790526001600160a01b03808a1692600092918716917fc3d58168c5ae7397731d063d5bbf3d657854427343f4c083240f7aacaa2d0f62910160405180910390a461157e83600089898989611d34565b50505050505050565b816001600160a01b0316836001600160a01b03160361160e5760405162461bcd60e51b815260206004820152602960248201527f455243313135353a2073657474696e6720617070726f76616c2073746174757360448201527f20666f722073656c660000000000000000000000000000000000000000000000606482015260840161040d565b6001600160a01b03838116600081815260016020908152604080832094871680845294825291829020805460ff191686151590811790915591519182527f17307eab39ab6107e8899845ad3d59bd9653f200f220920489ca2b5937696c31910160405180910390a3505050565b6001600160a01b0384166116f75760405162461bcd60e51b815260206004820152602560248201527f455243313135353a207472616e7366657220746f20746865207a65726f20616460448201527f6472657373000000000000000000000000000000000000000000000000000000606482015260840161040d565b33600061170385611ce9565b9050600061171085611ce9565b9050611720838989858589611a22565b6000868152602081815260408083206001600160a01b038c168452909152902054858110156117b75760405162461bcd60e51b815260206004820152602a60248201527f455243313135353a20696e73756666696369656e742062616c616e636520666f60448201527f72207472616e7366657200000000000000000000000000000000000000000000606482015260840161040d565b6000878152602081815260408083206001600160a01b038d8116855292528083208985039055908a168252812080548892906117f490849061289b565b909155505060408051888152602081018890526001600160a01b03808b16928c821692918816917fc3d58168c5ae7397731d063d5bbf3d657854427343f4c083240f7aacaa2d0f62910160405180910390a4611854848a8a8a8a8a611d34565b505050505050505050565b6001600160a01b0383166118db5760405162461bcd60e51b815260206004820152602360248201527f455243313135353a206275726e2066726f6d20746865207a65726f206164647260448201527f6573730000000000000000000000000000000000000000000000000000000000606482015260840161040d565b3360006118e784611ce9565b905060006118f484611ce9565b905061191483876000858560405180602001604052806000815250611a22565b6000858152602081815260408083206001600160a01b038a168452909152902054848110156119aa5760405162461bcd60e51b8152602060048201526024808201527f455243313135353a206275726e20616d6f756e7420657863656564732062616c60448201527f616e636500000000000000000000000000000000000000000000000000000000606482015260840161040d565b6000868152602081815260408083206001600160a01b038b81168086529184528285208a8703905582518b81529384018a90529092908816917fc3d58168c5ae7397731d063d5bbf3d657854427343f4c083240f7aacaa2d0f62910160405180910390a460408051602081019091526000905261157e565b6001600160a01b0385161580611a3f57506001600160a01b038416155b80611a4d575060055460ff16155b80611a6557506003546001600160a01b038681169116145b611ad75760405162461bcd60e51b815260206004820152602260248201527f46697273743a20546f6b656e7320617265206e6f6e207472616e73666572616260448201527f6c65000000000000000000000000000000000000000000000000000000000000606482015260840161040d565b61114e868686868686611e8f565b6001600160a01b0384163b1561114e576040517fbc197c810000000000000000000000000000000000000000000000000000000081526001600160a01b0385169063bc197c8190611b4290899089908890889088906004016128dc565b6020604051808303816000875af1925050508015611b7d575060408051601f3d908101601f19168201909252611b7a9181019061293a565b60015b611c3257611b89612957565b806308c379a003611bc25750611b9d612973565b80611ba85750611bc4565b8060405162461bcd60e51b815260040161040d91906121ed565b505b60405162461bcd60e51b815260206004820152603460248201527f455243313135353a207472616e7366657220746f206e6f6e204552433131353560448201527f526563656976657220696d706c656d656e746572000000000000000000000000606482015260840161040d565b7fffffffff0000000000000000000000000000000000000000000000000000000081167fbc197c81000000000000000000000000000000000000000000000000000000001461157e5760405162461bcd60e51b815260206004820152602860248201527f455243313135353a204552433131353552656365697665722072656a6563746560448201527f6420746f6b656e73000000000000000000000000000000000000000000000000606482015260840161040d565b60408051600180825281830190925260609160009190602080830190803683370190505090508281600081518110611d2357611d2361274f565b602090810291909101015292915050565b6001600160a01b0384163b1561114e576040517ff23a6e610000000000000000000000000000000000000000000000000000000081526001600160a01b0385169063f23a6e6190611d919089908990889088908890600401612a1b565b6020604051808303816000875af1925050508015611dcc575060408051601f3d908101601f19168201909252611dc99181019061293a565b60015b611dd857611b89612957565b7fffffffff0000000000000000000000000000000000000000000000000000000081167ff23a6e61000000000000000000000000000000000000000000000000000000001461157e5760405162461bcd60e51b815260206004820152602860248201527f455243313135353a204552433131353552656365697665722072656a6563746560448201527f6420746f6b656e73000000000000000000000000000000000000000000000000606482015260840161040d565b6001600160a01b038516611f165760005b8351811015611f1457828181518110611ebb57611ebb61274f565b602002602001015160046000868481518110611ed957611ed961274f565b602002602001015181526020019081526020016000206000828254611efe919061289b565b90915550611f0d90508161277b565b9050611ea0565b505b6001600160a01b03841661114e5760005b835181101561157e576000848281518110611f4457611f4461274f565b602002602001015190506000848381518110611f6257611f6261274f565b6020026020010151905060006004600084815260200190815260200160002054905081811015611ffa5760405162461bcd60e51b815260206004820152602860248201527f455243313135353a206275726e20616d6f756e74206578636565647320746f7460448201527f616c537570706c79000000000000000000000000000000000000000000000000606482015260840161040d565b600092835260046020526040909220910390556120168161277b565b9050611f27565b80356001600160a01b038116811461203457600080fd5b919050565b6000806040838503121561204c57600080fd5b6120558361201d565b946020939093013593505050565b7fffffffff000000000000000000000000000000000000000000000000000000008116811461053357600080fd5b6000602082840312156120a357600080fd5b81356120ae81612063565b9392505050565b634e487b7160e01b600052604160045260246000fd5b601f19601f830116810181811067ffffffffffffffff821117156120f1576120f16120b5565b6040525050565b600067ffffffffffffffff831115612112576121126120b5565b6040516121296020601f19601f87011601826120cb565b80915083815284848401111561213e57600080fd5b83836020830137600060208583010152509392505050565b60006020828403121561216857600080fd5b813567ffffffffffffffff81111561217f57600080fd5b8201601f8101841361219057600080fd5b61219f848235602084016120f8565b949350505050565b6000815180845260005b818110156121cd576020818501810151868301820152016121b1565b506000602082860101526020601f19601f83011685010191505092915050565b6020815260006120ae60208301846121a7565b60006020828403121561221257600080fd5b5035919050565b600067ffffffffffffffff821115612233576122336120b5565b5060051b60200190565b600082601f83011261224e57600080fd5b8135602061225b82612219565b60405161226882826120cb565b83815260059390931b850182019282810191508684111561228857600080fd5b8286015b848110156122a3578035835291830191830161228c565b509695505050505050565b600082601f8301126122bf57600080fd5b6120ae838335602085016120f8565b600080600080608085870312156122e457600080fd5b6122ed8561201d565b9350602085013567ffffffffffffffff8082111561230a57600080fd5b6123168883890161223d565b9450604087013591508082111561232c57600080fd5b6123388883890161223d565b9350606087013591508082111561234e57600080fd5b5061235b878288016122ae565b91505092959194509250565b600080600080600060a0868803121561237f57600080fd5b6123888661201d565b94506123966020870161201d565b9350604086013567ffffffffffffffff808211156123b357600080fd5b6123bf89838a0161223d565b945060608801359150808211156123d557600080fd5b6123e189838a0161223d565b935060808801359150808211156123f757600080fd5b50612404888289016122ae565b9150509295509295909350565b6000806040838503121561242457600080fd5b823567ffffffffffffffff8082111561243c57600080fd5b818501915085601f83011261245057600080fd5b8135602061245d82612219565b60405161246a82826120cb565b83815260059390931b850182019282810191508984111561248a57600080fd5b948201945b838610156124af576124a08661201d565b8252948201949082019061248f565b965050860135925050808211156124c557600080fd5b506124d28582860161223d565b9150509250929050565b600081518084526020808501945080840160005b8381101561250c578151875295820195908201906001016124f0565b509495945050505050565b6020815260006120ae60208301846124dc565b60008060006060848603121561253f57600080fd5b6125488461201d565b9250602084013567ffffffffffffffff8082111561256557600080fd5b6125718783880161223d565b9350604086013591508082111561258757600080fd5b506125948682870161223d565b9150509250925092565b600080600080608085870312156125b457600080fd5b6125bd8561201d565b93506020850135925060408501359150606085013567ffffffffffffffff8111156125e757600080fd5b61235b878288016122ae565b6000806040838503121561260657600080fd5b61260f8361201d565b91506020830135801515811461262457600080fd5b809150509250929050565b6000806040838503121561264257600080fd5b61264b8361201d565b91506126596020840161201d565b90509250929050565b600080600080600060a0868803121561267a57600080fd5b6126838661201d565b94506126916020870161201d565b93506040860135925060608601359150608086013567ffffffffffffffff8111156126bb57600080fd5b612404888289016122ae565b6000602082840312156126d957600080fd5b6120ae8261201d565b6000806000606084860312156126f757600080fd5b6127008461201d565b95602085013595506040909401359392505050565b600181811c9082168061272957607f821691505b60208210810361274957634e487b7160e01b600052602260045260246000fd5b50919050565b634e487b7160e01b600052603260045260246000fd5b634e487b7160e01b600052601160045260246000fd5b6000600019820361278e5761278e612765565b5060010190565b601f8211156108eb57600081815260208120601f850160051c810160208610156127bc5750805b601f850160051c820191505b8181101561114e578281556001016127c8565b815167ffffffffffffffff8111156127f5576127f56120b5565b612809816128038454612715565b84612795565b602080601f83116001811461283e57600084156128265750858301515b600019600386901b1c1916600185901b17855561114e565b600085815260208120601f198616915b8281101561286d5788860151825594840194600190910190840161284e565b508582101561288b5787850151600019600388901b60f8161c191681555b5050505050600190811b01905550565b8082018082111561043957610439612765565b6040815260006128c160408301856124dc565b82810360208401526128d381856124dc565b95945050505050565b60006001600160a01b03808816835280871660208401525060a0604083015261290860a08301866124dc565b828103606084015261291a81866124dc565b9050828103608084015261292e81856121a7565b98975050505050505050565b60006020828403121561294c57600080fd5b81516120ae81612063565b600060033d11156129705760046000803e5060005160e01c5b90565b600060443d10156129815790565b6040517ffffffffffffffffffffffffffffffffffffffffffffffffffffffffffffffffc803d016004833e81513d67ffffffffffffffff81602484011181841117156129cf57505050505090565b82850191508151818111156129e75750505050505090565b843d8701016020828501011115612a015750505050505090565b612a10602082860101876120cb565b509095945050505050565b60006001600160a01b03808816835280871660208401525084604083015283606083015260a06080830152612a5360a08301846121a7565b97965050505050505056fea2646970667358221220435bf28f3ed9aea25338dbadad9a569e98da8d91f5a829a0767cebfe977d678464736f6c63430008110033",
  "devdoc": {
    "details": "Token transfers may be locked and unlocked by the contract Owner",
    "kind": "dev",
    "methods": {
      "balanceOf(address,uint256)": {
        "details": "See {IERC1155-balanceOf}. Requirements: - `account` cannot be the zero address."
      },
      "balanceOfBatch(address[],uint256[])": {
        "details": "See {IERC1155-balanceOfBatch}. Requirements: - `accounts` and `ids` must have the same length."
      },
      "exists(uint256)": {
        "details": "Indicates whether any token exist with a given id, or not."
      },
      "isApprovedForAll(address,address)": {
        "details": "See {IERC1155-isApprovedForAll}."
      },
      "lock()": {
        "details": "By locking the contract, token owners are prevented from transferring their tokensWhen the contract is locked, mint and burn functions are still permitted"
      },
      "mint(address,uint256,uint256,bytes)": {
        "params": {
          "amount": "The supply to be minted for that token id",
          "data": "Optional data",
          "id": "The token id to mint",
          "to": "Receiving address for the new token id"
        }
      },
      "mintBatch(address,uint256[],uint256[],bytes)": {
        "params": {
          "amounts": "Array of supplies to be minted for the token ids",
          "data": "Optional data",
          "ids": "Array of token ids to mint",
          "to": "Receiving address for the new token ids"
        }
      },
      "owner()": {
        "details": "Returns the address of the current owner."
      },
      "renounceOwnership()": {
        "details": "Leaves the contract without owner. It will not be possible to call `onlyOwner` functions anymore. Can only be called by the current owner. NOTE: Renouncing ownership will leave the contract without an owner, thereby removing any functionality that is only available to the owner."
      },
      "safeBatchTransferFrom(address,address,uint256[],uint256[],bytes)": {
        "details": "See {IERC1155-safeBatchTransferFrom}."
      },
      "safeTransferFrom(address,address,uint256,uint256,bytes)": {
        "details": "See {IERC1155-safeTransferFrom}."
      },
      "setApprovalForAll(address,bool)": {
        "details": "See {IERC1155-setApprovalForAll}."
      },
      "setURI(string)": {
        "params": {
          "newuri": "The new token URI for all tokens minted"
        }
      },
      "supportsInterface(bytes4)": {
        "details": "See {IERC165-supportsInterface}."
      },
      "totalSupply(uint256)": {
        "details": "Total amount of tokens in with a given id."
      },
      "transferOwnership(address)": {
        "details": "Transfers ownership of the contract to a new account (`newOwner`). Can only be called by the current owner."
      },
      "unlock()": {
        "details": "By unlocking the contract, token owners are allowed to transfer their tokens"
      },
      "uri(uint256)": {
        "details": "See {IERC1155MetadataURI-uri}. This implementation returns the same URI for *all* token types. It relies on the token type ID substitution mechanism https://eips.ethereum.org/EIPS/eip-1155#metadata[defined in the EIP]. Clients calling this function must replace the `\\{id\\}` substring with the actual token type ID."
      }
    },
    "version": 1
  },
  "userdoc": {
    "events": {
      "Locked()": {
        "notice": "Emitted when the locking status is changed to locked."
      },
      "Unlocked()": {
        "notice": "Emitted when the locking status is changed to unlocked."
      }
    },
    "kind": "user",
    "methods": {
      "isLocked()": {
        "notice": "Public function for viewing the contract's locked status (true or false)"
      },
      "lock()": {
        "notice": "Owner function to lock the contract"
      },
      "mint(address,uint256,uint256,bytes)": {
        "notice": "Owner function for minting a new token id"
      },
      "mintBatch(address,uint256[],uint256[],bytes)": {
        "notice": "Owner function for batch minting new token ids"
      },
      "setURI(string)": {
        "notice": "Owner function to unlock the contract"
      },
      "unlock()": {
        "notice": "Owner function to unlock the contract"
      }
    },
    "notice": "Soulbound ERC1155 for the first 1000",
    "version": 1
  },
  "storageLayout": {
    "storage": [
      {
        "astId": 138,
        "contract": "src/First.sol:First",
        "label": "_balances",
        "offset": 0,
        "slot": "0",
        "type": "t_mapping(t_uint256,t_mapping(t_address,t_uint256))"
      },
      {
        "astId": 144,
        "contract": "src/First.sol:First",
        "label": "_operatorApprovals",
        "offset": 0,
        "slot": "1",
        "type": "t_mapping(t_address,t_mapping(t_address,t_bool))"
      },
      {
        "astId": 146,
        "contract": "src/First.sol:First",
        "label": "_uri",
        "offset": 0,
        "slot": "2",
        "type": "t_string_storage"
      },
      {
        "astId": 7,
        "contract": "src/First.sol:First",
        "label": "_owner",
        "offset": 0,
        "slot": "3",
        "type": "t_address"
      },
      {
        "astId": 1577,
        "contract": "src/First.sol:First",
        "label": "_totalSupply",
        "offset": 0,
        "slot": "4",
        "type": "t_mapping(t_uint256,t_uint256)"
      },
      {
        "astId": 2117,
        "contract": "src/First.sol:First",
        "label": "_locked",
        "offset": 0,
        "slot": "5",
        "type": "t_bool"
      },
      {
        "astId": 2119,
        "contract": "src/First.sol:First",
        "label": "name",
        "offset": 0,
        "slot": "6",
        "type": "t_string_storage"
      },
      {
        "astId": 2121,
        "contract": "src/First.sol:First",
        "label": "symbol",
        "offset": 0,
        "slot": "7",
        "type": "t_string_storage"
      }
    ],
    "types": {
      "t_address": {
        "encoding": "inplace",
        "label": "address",
        "numberOfBytes": "20"
      },
      "t_bool": {
        "encoding": "inplace",
        "label": "bool",
        "numberOfBytes": "1"
      },
      "t_mapping(t_address,t_bool)": {
        "encoding": "mapping",
        "key": "t_address",
        "label": "mapping(address => bool)",
        "numberOfBytes": "32",
        "value": "t_bool"
      },
      "t_mapping(t_address,t_mapping(t_address,t_bool))": {
        "encoding": "mapping",
        "key": "t_address",
        "label": "mapping(address => mapping(address => bool))",
        "numberOfBytes": "32",
        "value": "t_mapping(t_address,t_bool)"
      },
      "t_mapping(t_address,t_uint256)": {
        "encoding": "mapping",
        "key": "t_address",
        "label": "mapping(address => uint256)",
        "numberOfBytes": "32",
        "value": "t_uint256"
      },
      "t_mapping(t_uint256,t_mapping(t_address,t_uint256))": {
        "encoding": "mapping",
        "key": "t_uint256",
        "label": "mapping(uint256 => mapping(address => uint256))",
        "numberOfBytes": "32",
        "value": "t_mapping(t_address,t_uint256)"
      },
      "t_mapping(t_uint256,t_uint256)": {
        "encoding": "mapping",
        "key": "t_uint256",
        "label": "mapping(uint256 => uint256)",
        "numberOfBytes": "32",
        "value": "t_uint256"
      },
      "t_string_storage": {
        "encoding": "bytes",
        "label": "string",
        "numberOfBytes": "32"
      },
      "t_uint256": {
        "encoding": "inplace",
        "label": "uint256",
        "numberOfBytes": "32"
      }
    }
  }
}